:020000040800F2
:1000000000000320D50C0008250D0008250D000870
:10001000250D0008250D0008250D00080000000032
:10002000000000000000000000000000250D000896
:10003000250D000800000000250D0008A50C000893
:10004000250D0008250D0008250D0008250D0008C8
:10005000250D0008250D0008250D0008250D0008B8
:10006000250D0008250D0008250D0008250D0008A8
:10007000250D0008250D0008250D0008250D000898
:10008000250D0008250D0008250D0008250D000888
:10009000250D0008250D0008250D0008250D000878
:1000A000250D0008250D0008250D0008250D000868
:1000B000250D0008250D0008250D0008250D000858
:1000C000250D0008250D0008250D0008250D000848
:1000D000250D0008250D0008250D0008250D000838
:1000E000250D0008250D0008250D0008250D000828
:1000F000250D0008250D0008250D0008250D000818
:10010000250D0008250D0008250D0008250D000807
:10011000250D0008250D0008250D0008250D0008F7
:10012000250D0008250D0008250D0008250D0008E7
:10013000250D0008250D0008250D0008250D0008D7
:10014000250D0008250D0008250D0008250D0008C7
:10015000250D0008250D0008250D0008250D0008B7
:10016000250D0008250D0008250D0008250D0008A7
:10017000250D0008250D0008250D0008250D000897
:10018000250D0008250D0008250D0008250D000887
:10019000250D0008250D0008250D0008250D000877
:0C01A000250D0008250D0008250D0008A5
:1001AC0010B5054C237833B9044B13B10448AFF3A5
:1001BC0000800123237010BD3800002000000000D7
:1001CC00700D000808B5034B1BB103490348AFF38E
:1001DC00008008BD000000003C000020700D0008ED
:1001EC0053B94AB9002908BF00281CBF4FF0FF3192
:1001FC004FF0FF3000F070B9ADF1080C6DE904CE92
:10020C0000F006F8DDF804E0DDE9022304B07047E5
:10021C002DE9F047089E0D4604460F46002B4AD1A7
:10022C008A42944665D9B2FA82F343B102FA03FCCE
:10023C00C3F120029F4020FA02F217439C404FEA80
:10024C001C4E1FFA8CF5B7FBFEF1220C0EFB11773E
:10025C0042EA074201FB05F090420AD91CEB02026C
:10026C0001F1FF3780F01C81904240F21981023974
:10027C006244121AA4B2B2FBFEF00EFB102244EA46
:10028C00024400FB05F5A5420AD91CEB040400F15D
:10029C00FF3280F00781A54240F2048164440238A9
:1002AC0040EA0140641B00211EB1DC400023C6E97A
:1002BC000043BDE8F0878B4208D9002E00F0ED809A
:1002CC000021C6E900050846BDE8F087B3FA83F1C2
:1002DC00002949D1AB4202D3824200F2F880841A41
:1002EC0065EB030201201746002EE2D0C6E9004759
:1002FC00DFE702B9FFDEB2FA82F3002B40F0908008
:10030C008A1A4FEA1C471FFA8CFE0121B2FBF7F543
:10031C0007FB1520220C42EA00420EFB05F090422E
:10032C0008D91CEB020205F1FF3802D2904200F210
:10033C00CB804546121AA4B2B2FBF7F007FB102291
:10034C0044EA02440EFB00FEA64508D91CEB04044B
:10035C0000F1FF3202D2A64500F2BB801046A4EB9E
:10036C000E0440EA05409FE7C1F120078B4022FABA
:10037C0007FC4CEA030C05FA01F420FA07F3FD40E4
:10038C004FEA1C492343B5FBF9F81FFA8CFE09FB15
:10039C0018551C0C44EA054408FB0EF5A54202FA5C
:1003AC0001F200FA01F00BD91CEB040408F1FF3A3E
:1003BC0080F08880A54240F28580A8F10208644450
:1003CC00641B9DB2B4FBF9F309FB134445EA0444E6
:1003DC0003FB0EFEA64508D91CEB040403F1FF3504
:1003EC006CD2A6456AD9023B644443EA0843A3FB9A
:1003FC000295A4EB0E04AC42C846AE4656D353D07D
:10040C0056B1B0EB080264EB0E0404FA07F7CA40CD
:10041C00CC401743C6E9007418460021BDE8F087AC
:10042C00C3F1200102FA03FC20FA01F225FA01F1D2
:10043C009D402A434FEA1C471FFA8CFEB1FBF7F094
:10044C0007FB1015110C41EA054100FB0EF58D421E
:10045C0004FA03F408D91CEB010100F1FF382FD288
:10046C008D422DD902386144491B92B2B1FBF7F58C
:10047C0007FB151142EA014205FB0EF1914208D926
:10048C001CEB020205F1FF3816D2914214D9023D41
:10049C006244521A45EA004138E73146304608E7D3
:1004AC003946E6E61046FBE64845A9D2B9EB020808
:1004BC0065EB0C0E013BA3E74546EAE72B4694E7B8
:1004CC004046D1E7D0467BE7023D624432E708461E
:1004DC000AE76444023842E7704700BF08B50F488A
:1004EC0000F0A6F900F092F80021022000F022F9A9
:1004FC0000F088FB00F014F86D2000F079F8002172
:10050C004FF47A7000F09CFB6D2000F063F8002132
:10051C004FF47A7000F094FBEEE700BF000000206F
:10052C00284A2948294B10B410604FF400605060E1
:10053C004FF0A07090602648D06000F1A84000F504
:10054C00A040C2F8000400214FF0553400F56C3087
:10055C00C2F80414C2F80814C2F80C44C2F800081B
:10056C00A0F57F30A0F2FB30C2F80418C2F80818CE
:10057C00C2F80C48C2F8000CC2F8041C0120C2F8E6
:10058C00081CC2F80C4C1C6059609960DC60C3F804
:10059C000044C3F80414C3F80814C3F80C44C3F89B
:1005AC000048C3F80418C3F80818C3F80C48C3F87B
:1005BC00004CC3F8041CC3F8081CC3F80C4C5DF8C1
:1005CC00044B7047000002405555A9AA0010024088
:1005DC0055555501054B0109012253F8211000F026
:1005EC000F0302FA03F30B6010467047880D0008E6
:1005FC000109054A00F00F0352F8212001201033A5
:10060C0000FA03F313607047880D000810B5002141
:10061C0082B0012408468DF8074000F09FF821466F
:10062C00034600208DF8073000F098F802210346AD
:10063C0000208DF8073000F091F8032103460020CC
:10064C008DF8073000F08AF80421034600208DF85D
:10065C00073000F083F80521034600208DF80730A1
:10066C0000F07CF80721034600208DF8073000F0DD
:10067C0075F80621034600208DF8073000F06EF85F
:10068C008DF80700204602B010BD00BF002846D0F0
:10069C00F8B5244982794B688588234E02F01F04F3
:1006AC0023F01F0323434B604B6843F6E07423F4A1
:1006BC007F5323F0200304EA85141C434C604478D8
:1006CC004B68270403F4403327F440371F434F6033
:1006DC000134630084784F68240627F0706704F0B7
:1006EC0070643C434C604C68077824F4800444EA02
:1006FC008754002F4C600D490CBF3046002001FB85
:10070C000700A3FB0223C117FFF76AFDA0FB05320C
:10071C0005FB0121064A0120C2E90031F8BD032086
:10072C00704700BF003802400024F40000127A0029
:10073C0058000020084A9368C90623F0605301F062
:10074C00605119439160936823F0404343EA8073EE
:10075C0093600120704700BF003802401F2911D858
:10076C0004280FD8084A10B452F8204001232268FC
:10077C0003FA01F1184622EA01030B4323605DF8EA
:10078C00044B704702207047A80D0008002848D081
:10079C00254B10B44488D3F8881047F6C07202EA8F
:1007AC008412224C21400A43C3F888204278D3F8A3
:1007BC008810120621F0706102F070620A43C3F8CF
:1007CC008820D3F88810C2882140C3F88810D3F849
:1007DC008C105DF8044B21F01F0102F01F020A433C
:1007EC00C3F88C208288D3F88C10920102F4F85252
:1007FC0021F4F8510A43C3F88C20D3F88C2022F44E
:10080C004032C3F88C20D3F88C2022F44012C3F869
:10081C008C20D3F88C2022F440020120C3F88C20C9
:10082C0070470320704700BF003802403F80FFFF35
:10083C00002800F0D1812DE9F8430378012B044600
:10084C0008D0042B18D8DFE813F0C101170097016A
:10085C009D01A301AB490B6843F480330B600B681B
:10086C009E0309D4F02302E013F0FF0304D00A68BE
:10087C00950303F1FF33F7D56378012B08D0042BD4
:10088C0018D8DFE813F08B011700910197019D0137
:10089C009C490B6843F480330B600B68980309D4B4
:1008AC00F02302E013F0FF0304D00A68920303F173
:1008BC00FF33F7D5A378012B40F0C580A068002842
:1008CC0000F08C81FFF7E2FE8E490B6843F4803315
:1008DC000B600B689B0309D4F02302E013F0FF03B9
:1008EC0004D00A68970303F1FF33F7D5E378012BA3
:1008FC0040F0CA80E268002A00F07C818149568869
:10090C00D1F88400804D47F6C073284003EA861363
:10091C000343C1F884308B682B408B605378D1F83B
:10092C0084001B0603F0706320F070600343C1F871
:10093C0084308B68127923F4000343EAC2538B6032
:10094C000B6843F480330B600B689E0309D4F023CF
:10095C0002E013F0FF0304D00A68950303F1FF33A0
:10096C00F7D52379012B7FD12069002800F03C8139
:10097C00FFF70CFF63490B6843F480330B600B6883
:10098C00980309D4F02302E013F0FF0304D00A68A3
:10099C00920303F1FF33F7D55A4D217DAA685B4EC4
:1009AC00DFF884915A4FDFF884814B0322F46042C4
:1009BC009BB21343AB6039F811200023D6E9000138
:1009CC00FFF70EFC637DC6E90001A96839F8132016
:1009DC009B0221F4E05103F4E0530B43AB60D7E9E5
:1009EC0000010023FFF7FCFBA27D4A4B33F81220D9
:1009FC00AB6823F0F003C7E90001D8E90001AB6054
:100A0C000023FFF7EDFBE27DAB68C8E9000123F0A2
:100A1C00030302F003010B43022AAB6044D0002A0B
:100A2C003D4B3E4918BF002301FB02333C49DA170A
:100A3C00C8E90032C7E90032C6E90032C1E9003228
:100A4C000120BDE8F883042B3FF650AF01A252F809
:100A5C0023F000BF790B0008F9080008610B0008AF
:100A6C00550B00086D0B0008042B95D801A252F809
:100A7C0023F000BF490B0008A5090008030B000870
:100A8C00F70A00083D0B0008042B3FF66AAF01A2E1
:100A9C0052F823F0EB0A00086F090008D30A00088B
:100AAC00C70A0008DF0A00081E4A1D4BD2E90045A0
:100ABC000120C3E90045BDE8F883124A136823F00E
:100ACC00806313604DE70F4A136823F08073136043
:100ADC0047E70C4A136823F08053136041E7094A37
:100AEC00136823F0010313603BE7064A136823F0F5
:100AFC008063136050E7034A136823F0807313601C
:100B0C004AE700BF003802403F80FFFF2000002072
:100B1C0018000020BC0D00080024F40000127A001C
:100B2C003000002058000020DC0D000828000020B8
:100B3C00334A136823F0805313602DE7304A13684F
:100B4C0023F00103136027E72D4A136823F0806319
:100B5C001360CBE62A4A136823F080731360C5E652
:100B6C00274A136823F080531360BFE6244A1368A6
:100B7C0023F001031360B9E6214A136823F0807354
:100B8C00136079E61E4A136823F08063136073E6E2
:100B9C001B4A136823F0805313606DE6184A1368E0
:100BAC0023F00103136085E6154A136823F0807364
:100BBC0013607FE6124A136823F08063136079E6B2
:100BCC000F4A136823F08053136073E60C4A1368C2
:100BDC0023F0010313604FE603207047084A1368A3
:100BEC0023F48033136081E6054A136823F48033C1
:100BFC001360D1E6024A136823F480331360B0E625
:100C0C00003802404FF0E02310B41A690A4C0B492B
:100C1C00606822F002021A611A6922F004021A6159
:100C2C0023685DF8044BDB08C20843EA4073C1E952
:100C3C0000320120704700BF280000206000002017
:100C4C00144910B54FF47A7204460023D1E900011F
:100C5C00FFF7C6FA4FF0E02304FB00F05861196966
:100C6C001A6922F002021A611A6942F00102C1F3F8
:100C7C0040011A611A69D203FCD51A6922F00102EB
:100C8C001A611A6922F0020242EA410201201A6139
:100C9C0010BD00BF6000002008B5094B1B6803B1F4
:100CAC009847084B1B784BB94FF0E0231A6922F098
:100CBC0002021A611A6922F001021A6108BD00BF12
:100CCC006C000020680000200D488546AFF30080C2
:100CDC000C480D490D4A002302E0D458C45004338B
:100CEC00C4188C42F9D30A4A0A4C002301E0136061
:100CFC000432A242FBD300F011F8FFF7EFFBFEE742
:100D0C000000032000000020380000200C0E00081A
:100D1C003800002070000020FEE7000070B50D4D7B
:100D2C000D4C641BA4100026A64209D10B4D0C4C93
:100D3C0000F018F8641BA4100026A64205D170BD63
:100D4C0055F8043B98470136EEE755F8043B9847B5
:100D5C000136F2E7040E0008040E0008040E000829
:100D6C00080E0008F8B500BFF8BC08BC9E467047DA
:0C0D7C00F8B500BFF8BC08BC9E467047EC
:100D8800180002401804024018080240180C0240DB
:100D9800181002401814024018180240181C02408B
:100DA8003038024034380240383802404038024077
:100DB800443802400100000000000000000000006C
:100DC800000000000200040008001000400080003D
:100DD8000001000201000000000000000200040001
:100DE80008001000000000000000000000000000E3
:040DF80000000000F7
:080DFC0020F4FF7F010000005C
:040E0400D101000810
:040E0800AD01000830
:100E0C0001010000000000000000000000000000D4
:100E1C0000000000000000010024F40000000000AD
:100E2C000024F400000000000024F4000000000086
:080E3C000024F4000000000096
:0400000508000CD50E
:00000001FF
